{
  "contractName": "Election",
  "abi": [
    {
      "inputs": [],
      "stateMutability": "nonpayable",
      "type": "constructor"
    },
    {
      "inputs": [
        {
          "internalType": "uint256",
          "name": "",
          "type": "uint256"
        }
      ],
      "name": "candidates",
      "outputs": [
        {
          "internalType": "uint256",
          "name": "id",
          "type": "uint256"
        },
        {
          "internalType": "string",
          "name": "name",
          "type": "string"
        },
        {
          "internalType": "uint256",
          "name": "voteCount",
          "type": "uint256"
        }
      ],
      "stateMutability": "view",
      "type": "function",
      "constant": true
    },
    {
      "inputs": [],
      "name": "candidatesCount",
      "outputs": [
        {
          "internalType": "uint256",
          "name": "",
          "type": "uint256"
        }
      ],
      "stateMutability": "view",
      "type": "function",
      "constant": true
    },
    {
      "inputs": [
        {
          "internalType": "uint256",
          "name": "_candidateId",
          "type": "uint256"
        }
      ],
      "name": "vote",
      "outputs": [],
      "stateMutability": "nonpayable",
      "type": "function"
    }
  ],
  "bytecode": "0x608060405234801561001057600080fd5b5061005e6040518060400160405280601481526020017f417075676f2047656f726765204b656c656368690000000000000000000000008152506100fd640100000000026401000000009004565b6100ab6040518060400160405280600d81526020017f4a6f73657068204f776f6e776f000000000000000000000000000000000000008152506100fd640100000000026401000000009004565b6100f86040518060400160405280600e81526020017f45726e65737420416d61626962690000000000000000000000000000000000008152506100fd640100000000026401000000009004565b610303565b60008081548092919061010f9061025c565b9190505550604051806060016040528060005481526020018281526020016000815250600160008054815260200190815260200160002060008201518160000155602082015181600101908051906020019061016c92919061017d565b506040820151816002015590505050565b8280546101899061022a565b90600052602060002090601f0160209004810192826101ab57600085556101f2565b82601f106101c457805160ff19168380011785556101f2565b828001600101855582156101f2579182015b828111156101f15782518255916020019190600101906101d6565b5b5090506101ff9190610203565b5090565b5b8082111561021c576000816000905550600101610204565b5090565b6000819050919050565b6000600282049050600182168061024257607f821691505b60208210811415610256576102556102d4565b5b50919050565b600061026782610220565b91507fffffffffffffffffffffffffffffffffffffffffffffffffffffffffffffffff82141561029a576102996102a5565b5b600182019050919050565b7f4e487b7100000000000000000000000000000000000000000000000000000000600052601160045260246000fd5b7f4e487b7100000000000000000000000000000000000000000000000000000000600052602260045260246000fd5b6104ef806103126000396000f3fe608060405234801561001057600080fd5b506004361061005e576000357c0100000000000000000000000000000000000000000000000000000000900480630121b93f146100635780632d35a8a21461007f5780633477ee2e1461009d575b600080fd5b61007d60048036038101906100789190610295565b6100cf565b005b6100876101c8565b6040516100949190610306565b60405180910390f35b6100b760048036038101906100b29190610295565b6101ce565b6040516100c693929190610321565b60405180910390f35b600260003373ffffffffffffffffffffffffffffffffffffffff1673ffffffffffffffffffffffffffffffffffffffff16815260200190815260200160002060009054906101000a900460ff161561012657600080fd5b60008111801561013857506000548111155b61014157600080fd5b6001600260003373ffffffffffffffffffffffffffffffffffffffff1673ffffffffffffffffffffffffffffffffffffffff16815260200190815260200160002060006101000a81548160ff0219169083151502179055506001600082815260200190815260200160002060020160008154809291906101c0906103ea565b919050555050565b60005481565b60016020528060005260406000206000915090508060000154908060010180546101f7906103b8565b80601f0160208091040260200160405190810160405280929190818152602001828054610223906103b8565b80156102705780601f1061024557610100808354040283529160200191610270565b820191906000526020600020905b81548152906001019060200180831161025357829003601f168201915b5050505050908060020154905083565b60008135905061028f816104a2565b92915050565b6000602082840312156102a757600080fd5b60006102b584828501610280565b91505092915050565b60006102c98261035f565b6102d3818561036a565b93506102e3818560208601610385565b6102ec81610491565b840191505092915050565b6103008161037b565b82525050565b600060208201905061031b60008301846102f7565b92915050565b600060608201905061033660008301866102f7565b818103602083015261034881856102be565b905061035760408301846102f7565b949350505050565b600081519050919050565b600082825260208201905092915050565b6000819050919050565b60005b838110156103a3578082015181840152602081019050610388565b838111156103b2576000848401525b50505050565b600060028204905060018216806103d057607f821691505b602082108114156103e4576103e3610462565b5b50919050565b60006103f58261037b565b91507fffffffffffffffffffffffffffffffffffffffffffffffffffffffffffffffff82141561042857610427610433565b5b600182019050919050565b7f4e487b7100000000000000000000000000000000000000000000000000000000600052601160045260246000fd5b7f4e487b7100000000000000000000000000000000000000000000000000000000600052602260045260246000fd5b6000601f19601f8301169050919050565b6104ab8161037b565b81146104b657600080fd5b5056fea26469706673582212208892ea03d34084b9bafe87332a0a03e8dcc4d07f49f814754979739a86a8ac1b64736f6c63430008000033",
  "immutableReferences": {},
  "source": "// SPDX-License-Identifier: GPL-3.0\npragma solidity >=0.7.0 <0.9.0;\n\ncontract Election {\n    uint256 public candidatesCount;\n\n    struct Candidate {\n        uint256 id;\n        string name;\n        uint256 voteCount;\n    }\n\n    mapping(uint256 => Candidate) public candidates;\n    mapping(address => bool) private voters;\n\n    constructor() {\n        addCandidate(\"Apugo George Kelechi\");\n        addCandidate(\"Joseph Owonwo\");\n        addCandidate(\"Ernest Amabibi\");\n    }\n\n    function addCandidate(string memory _name) private {\n        candidatesCount++;\n        candidates[candidatesCount] = Candidate(candidatesCount, _name, 0);\n    }\n\n    function vote (uint _candidateId) public {\n        // check that sender has not voted before\n        require(!voters[msg.sender]);\n        \n        // check that _candidateId is available\n        require(_candidateId > 0 && _candidateId <= candidatesCount);\n        \n        voters[msg.sender] = true;\n        \n        // update candidates vote count\n        candidates[_candidateId].voteCount ++;\n    }\n}\n",
  "sourcePath": "C:/Users/Laviedegeorge/Documents/Programming/source/web3-dapps/election-dapp/contracts/Election.sol",
  "compiler": {
    "name": "solc",
    "version": "0.8.0+commit.c7dfd78e.Emscripten.clang"
  },
  "schemaVersion": "3.4.1",
  "updatedAt": "2021-07-01T07:25:43.672Z",
  "networkType": "ethereum",
  "devdoc": {
    "kind": "dev",
    "methods": {},
    "version": 1
  },
  "userdoc": {
    "kind": "user",
    "methods": {},
    "version": 1
  }
}